:100000000C945D000C9485000C9485000C94850084
:100010000C9485000C9485000C9485000C9485004C
:100020000C9485000C9485000C9485000C94C905F3
:100030000C9485000C9485000C9485000C9485002C
:100040000C9464040C9485000C9432040C940C04FD
:100050000C9485000C9485000C9485000C9485000C
:100060000C94AE040C9485000000000024002700CE
:100070002A0000000000250028002B0004040404CE
:100080000404040402020202020203030303030342
:10009000010204081020408001020408102001021F
:1000A00004081020000000080002010000030407FB
:1000B0000000000000000000850611241FBECFEFE5
:1000C000D8E0DEBFCDBF11E0A0E0B1E0E6E7F2E1AD
:1000D00002C005900D92A831B107D9F722E0A8E13E
:1000E000B1E001C01D92AB36B207E1F710E0CDE5FB
:1000F000D0E004C02197FE010E943309CC35D1071E
:10010000C9F70E94F2060C9439090C940000CF92B2
:10011000DF92EF92FF92DC01A03282E0B807D4F5C3
:10012000A53BB10514F0A4EBB0E04091690228E8CA
:1001300030E0241B310947FD3395220F331F220F76
:10014000331F6901330FEE08FF0840916A0228E56A
:1001500032E0241B310947FD3395220F331F220F54
:10016000331F032E000C440B550B2C193D094E096F
:100170005F09B7FF02C0B0E0A0E00E94EE0824EBE8
:1001800030E040E050E00E94C408C20ED31EE41EDE
:10019000F51ED601E0916802EC3080F520916902ED
:1001A00088E890E0821B910927FD9395880F991F9D
:1001B000880F991FA817B90784F020916A0288E573
:1001C00092E0821B910927FD9395880F991F880F54
:1001D000991FA817B9070CF4CD010297880F991F32
:1001E0004FB7F8942E2F30E0F901EE0FFF1FE20F0A
:1001F000F31FE85CFD4F928381834FBFFF90EF9028
:10020000DF90CF900895AF92BF92CF92DF92EF929E
:10021000FF920F931F93CF93DF936C017B018B01B0
:10022000040F151FEB015E01AE18BF08C017D10700
:1002300059F06991D601ED91FC910190F081E02D8A
:10024000C6010995892B79F7C501DF91CF911F91DF
:100250000F91FF90EF90DF90CF90BF90AF900895F7
:10026000FC01538D448D252F30E0842F90E0821BBC
:10027000930B541710F0CF96089501970895FC0141
:10028000918D828D981761F0A28DAE0FBF2FB11D99
:100290005D968C91928D9F5F9F73928F90E00895F1
:1002A0008FEF9FEF0895FC01918D828D981731F0AB
:1002B000828DE80FF11D858D90E008958FEF9FEFFF
:1002C0000895FC01918D228D892F90E0805C9F4FD5
:1002D000821B91098F73992708958BE991E00E9401
:1002E000610121E0892B09F420E0822F089580E04C
:1002F00090E0892B29F00E946D0181110C9400007F
:100300000895FC01A48DA80FB92FB11DA35ABF4FAA
:100310002C91848D90E001968F739927848FA68904
:10032000B7892C93A089B1898C91837080648C9358
:10033000938D848D981306C00288F389E02D808107
:100340008F7D80830895EF92FF920F931F93CF9339
:10035000DF93EC0181E0888F9B8D8C8D98131AC000
:10036000E889F989808185FF15C09FB7F894EE89E7
:10037000FF896083E889F989808183708064808344
:100380009FBF81E090E0DF91CF911F910F91FF908F
:10039000EF900895F62E0B8D10E00F5F1F4F0F7337
:1003A0001127E02E8C8D8E110CC00FB607FCFACFF2
:1003B000E889F989808185FFF5CFCE010E9481010E
:1003C000F1CFEB8DEC0FFD2FF11DE35AFF4FF082C3
:1003D0009FB7F8940B8FEA89FB8980818062CFCF29
:1003E000CF93DF93EC01888D8823B9F0AA89BB896C
:1003F000E889F9898C9185FD03C0808186FD0DC057
:100400000FB607FCF7CF8C9185FFF2CF808185FF77
:10041000EDCFCE010E948101E9CFDF91CF91089508
:1004200090E0FC01EC55FF4F2491FC01E057FF4F99
:100430003491FC01E458FF4FE491EE23C9F02223EC
:1004400039F0233001F1A8F4213019F1223029F1DB
:10045000F0E0EE0FFF1FEE58FF4FA591B4918FB75C
:10046000F894EC91611126C030953E233C938FBFE8
:1004700008952730A9F02830C9F0243049F7809139
:1004800080008F7D03C0809180008F7780938000F3
:10049000DFCF84B58F7784BDDBCF84B58F7DFBCF75
:1004A0008091B0008F778093B000D2CF8091B00060
:1004B0008F7DF9CF3E2BDACFCF93DF9390E0FC0115
:1004C000E057FF4F249184589F4FFC01849188236B
:1004D000D1F090E0880F991FFC01E859FF4FA591DA
:1004E000B491FC01EE58FF4FC591D49161110EC03B
:1004F0009FB7F8948C91E22FE0958E238C932881FE
:10050000E223E8839FBFDF91CF9108958FB7F894DE
:10051000EC91E22BEC938FBFF6CFCF93DF93CDE539
:10052000D2E060E08A810E94100261E08A810E942C
:100530005C0260E088810E94100261E088810E9474
:100540005C0261E089810E945C0261E08A810E9414
:1005500010028BE090E00197F1F7DF91CF910895C1
:100560003FB7F89480918F0190919001A0919101F3
:10057000B091920126B5A89B05C02F3F19F00196B6
:10058000A11DB11D3FBFBA2FA92F982F8827BC01ED
:10059000CD01620F711D811D911D42E0660F771F15
:1005A000881F991F4A95D1F708958F929F92AF9215
:1005B000BF92CF92DF92EF92FF924B015C010E94BB
:1005C000B0026B017C010E94B0026C197D098E099A
:1005D0009F09683E734081059105A8F321E0821AC6
:1005E0009108A108B10888EEC80E83E0D81EE11C6E
:1005F000F11C81149104A104B10429F7FF90EF903C
:10060000DF90CF90BF90AF909F908F9008952091F2
:100610004001260F3327331F21323105ECF420919E
:100620006401FC0190E080E0243069F082E00895EC
:10063000A09140012191AC01405E5E4FA40FB52F07
:10064000B11D2C930196861798F380914001680F95
:100650006093400180E0089581E0089508958FEF50
:100660009FEF08958FEF9FEF08958091190190E01B
:100670009195819591090895CF93DF93CB01EA017C
:10068000642F0E940703CE01DF91CF910895CF938D
:10069000DF931F92CDB7DEB7698361E0CE0101968B
:1006A0000E94070381E090E00F90DF91CF910895C1
:1006B00090E080E008950F931F93CF93DF93D0E0F5
:1006C000C0E0082F10E0B8010C2E02C075956795A8
:1006D0000A94E2F7617080915E020E94100261E06C
:1006E00080915D020E94100260E080915D020E9494
:1006F00010022196C830D10531F7DF91CF911F91BB
:100700000F910895CF93C82F0E948D028C2F0E94C5
:100710005B0380E00E945B0360E080915F020E94C7
:1007200010028BE090E00197F1F7CF9108951F93AD
:10073000CF93DF9385ED8093BC0080911C01909155
:100740001D01A0911E01B0911F010796A11DB11DB1
:1007500023E0B695A795979587952A95D1F720918F
:10076000BC0024FD03C01092640152C040911C01E2
:1007700050911D0160911E0170911F01452B462B68
:10078000472B69F30097A105B10541F025E32A95B0
:10079000F1F700000197A109B109E1CF80911B0198
:1007A000C1E0C0931A01882399F1D091B80010914B
:1007B000BA008091BC008A7B8093BC0060E082E13B
:1007C0000E94100260E083E10E9410021092640116
:1007D000C09366011092650161E082E10E941002FF
:1007E00061E083E10E9410028091B9008E7F8093C6
:1007F000B9008091B9008D7F8093B90088E480931F
:10080000B80085E48093BC001093BA00D093B80080
:10081000DF91CF911F9108951F920F920FB60F9203
:1008200011242F933F934F935F936F937F938F93F5
:100830009F93AF93BF93EF93FF938BE991E00E9457
:100840008101FF91EF91BF91AF919F918F917F9126
:100850006F915F914F913F912F910F900FBE0F902D
:100860001F9018951F920F920FB60F9211242F937D
:100870008F939F93EF93FF93E091AB01F091AC01C5
:100880008081E091B101F091B20182FD1BC09081A5
:100890008091B4018F5F8F732091B501821741F071
:1008A000E091B401F0E0E556FE4F958F8093B401DE
:1008B000FF91EF919F918F912F910F900FBE0F900D
:1008C0001F9018958081F4CF1F920F920FB60F9250
:1008D00011242F933F938F939F93AF93BF93809156
:1008E0008B0190918C01A0918D01B0918E0130917E
:1008F0008A0123E0230F2D3758F50196A11DB11D64
:1009000020938A0180938B0190938C01A0938D0199
:10091000B0938E0180918F0190919001A0919101EF
:10092000B09192010196A11DB11D80938F0190930A
:100930009001A0939101B0939201BF91AF919F91CB
:100940008F913F912F910F900FBE0F901F90189590
:1009500026E8230F0296A11DB11DD2CF1F920F9240
:100960000FB60F9211242F933F934F935F936F9382
:100970007F938F939F93AF93BF93EF93FF93809158
:10098000B900887F803609F44AC0F0F5883209F44E
:10099000A5C018F5803109F499C0B8F4882309F48A
:1009A000F5C0883009F492C0FF91EF91BF91AF91EB
:1009B0009F918F917F916F915F914F913F912F9177
:1009C0000F900FBE0F901F901895883109F486C0C4
:1009D000803251F78093630114C0803409F49BC0C6
:1009E00040F48033B9F38833F9F68093630185ECE2
:1009F000AEC0803509F483C0883509F494C08834CA
:100A000099F60E949703D0CF883909F48AC038F547
:100A1000883729F050F4883611F0803729F683E0C2
:100A2000809364011092620155C0883809F479C03E
:100A3000803919F0803809F0B7CF80916201803297
:100A400008F06FC0E091620181E08E0F8093620137
:100A50008091BB00F0E0EE5BFE4F80833BC0803BAB
:100A600039F0D0F4803A09F477C0883A09F09CCF85
:100A700084E0809364011092410110924001F0E003
:100A8000E0E009958091400181110FC081E08093E1
:100A900040011092200109C0803C09F4A8CF883C95
:100AA00009F4A5CF883B09F07FCFE091410181E0B7
:100AB0008E0F80934101F0E0E05EFE4F80818093D5
:100AC000BB00909141018091400129C08091890132
:100AD0008093BB0085EC8093BC0066CF9091880129
:100AE00080918701981758F5E091880181E08E0F79
:100AF00080938801F0E0E959FE4F8081E9CFE091D1
:100B0000880181E08E0F809388018091BB00F0E026
:100B1000E959FE4F80839091880180918701981751
:100B2000C8F285E8D8CFE091880181E08E0F8093EC
:100B300088018091BB00F0E0E959FE4F80838091ED
:100B4000660181115ECF81E08093650184EA809324
:100B5000BC001092640128CF85EC8093BC001092F9
:100B6000640180916201803230F4E0916201F0E032
:100B7000EE5BFE4F10826091620170E082E491E0D2
:100B8000F0E0E0E00995109262010ECF109263014F
:100B900038CF1F920F920FB60F9211242F933F93CD
:100BA0004F935F936F937F938F939F93AF93BF9375
:100BB000CF93DF93EF93FF9380911801C0915C0274
:100BC000D0E087FF24C010928500109284008091AD
:100BD00018018F5F8093180180911801082E000C76
:100BE000990B8C179D0724F4809118018C30C4F167
:100BF0008091840090918500049680349C4908F48B
:100C00007AC08091840090918500049676C080918E
:100C10001801082E000C990B8C179D07C4F6E09163
:100C200018018E2FEE0F990BFC01EE0FFF1FE80F3E
:100C3000F91FE85CFD4F808186FFC9CFE091180164
:100C40008E2FEE0F990BFC01EE0FFF1FE80FF91F1F
:100C5000E85CFD4F808160E08F730E941002B7CF87
:100C60002091840030918500E09118018E2FEE0FC5
:100C7000990BFC01EE0FFF1FE80FF91FE85CFD4F19
:100C800081819281820F931F9093890080938800C5
:100C9000E09118018E2FEE0F990BFC01EE0FFF1F54
:100CA000E80FF91FE85CFD4F808186FF11C0E091DD
:100CB00018018E2FEE0F990BFC01EE0FFF1FE80FAE
:100CC000F91FE85CFD4F808161E08F730E94100284
:100CD000FF91EF91DF91CF91BF91AF919F918F9154
:100CE0007F916F915F914F913F912F910F900FBE28
:100CF0000F901F90189580E49CE990938900809351
:100D000088008FEF80931801E3CF10929E0110921C
:100D10009D0188EE93E0A0E0B0E080939F01909366
:100D2000A001A093A101B093A20184E091E090936F
:100D30009C0180939B0185EC90E09093A8018093A7
:100D4000A70184EC90E09093AA018093A90180EC24
:100D500090E09093AC018093AB0181EC90E0909394
:100D6000AE018093AD0182EC90E09093B00180934E
:100D7000AF0186EC90E09093B2018093B1011092A4
:100D8000B4011092B5011092B6011092B701809192
:100D90005C028C3018F591E0980F90935C02809380
:100DA000680290E0FC01EE0FFF1FE80FF91FE85CFE
:100DB000FD4F88EB9BE09283818387E080935D0207
:100DC00088E080935E0289E080935F028EE890E085
:100DD0000E94820380E990E00C9482038FEF80935D
:100DE0006802EBCF789484B5826084BD84B581605D
:100DF00084BD85B5826085BD85B5816085BD8091E6
:100E00006E00816080936E0010928100809181005D
:100E10008260809381008091810081608093810055
:100E2000809180008160809380008091B100846017
:100E30008093B1008091B00081608093B000809178
:100E40007A00846080937A0080917A008260809337
:100E50007A0080917A00816080937A0080917A0094
:100E6000806880937A001092C100809168028C3073
:100E700008F051C061E085E00E945C028091680248
:100E8000282F30E0F901EE0FFF1FE20FF31FE85C9F
:100E9000FD4F9081907C9560908310926902109232
:100EA0006A022CE0622F0E942709829FB001112460
:100EB00030E020E0AB01420F531FFA01EE0FFF1F9D
:100EC000E40FF51FE85CFD4F908196FD16C02F5F83
:100ED0003F4F2C30310571F781110FC01092800007
:100EE00082E0809381001092850010928400B19A74
:100EF00080916F00826080936F00E09168028E2F76
:100F000090E0FC01EE0FFF1FE80FF91FE85CFD4FBA
:100F100080818064808390E080E00E94870061E0AF
:100F20008DE00E945C0261E08DE00E94100264EF9F
:100F300071E080E090E00E94D50260E08DE00E94C8
:100F4000100264EF71E080E090E00E94D502E3E9D6
:100F5000F1E088E0DF011D928A95E9F78091940124
:100F6000807F83608093940180919501807C826270
:100F700080939501809196018F7C80628093960189
:100F800080919701807F8460809397018091980180
:100F9000887F83608093980182E2809399010E9408
:100FA0008D028EEB0E945B03C3E9D1E089910E9420
:100FB0005B03B1E0CB39DB07C9F760E080915F02EA
:100FC0000E9410028BE090E00197F1F7E091AB01F5
:100FD000F091AC0182E08083E091A701F091A8013B
:100FE0001082E091A901F091AA018FEC8083109208
:100FF000B301E091AF01F091B00186E08083E09110
:10100000AD01F091AE01808180618083E091AD01FE
:10101000F091AE01808188608083E091AD01F09114
:10102000AE01808180688083E091AD01F091AE01D6
:1010300080818F7D808300E010E068EB7BE080E0C2
:1010400090E00E94D502C0916102E0906202F12C12
:10105000D0E0B7016C0F7D1F6E5E7E4FFB010190EB
:101060000020E9F73197AF01461B570B8BE991E060
:101070000E94030142E050E064E171E08BE991E0FD
:101080000E94030161E08DE00E94100268EE73E0AF
:1010900080E090E00E94D50260E08DE00E941002A6
:1010A00068EE73E080E090E00E94D502D12CC12C64
:1010B00061E08DE0CE14DF04B4F40E94100264EF0E
:1010C00071E080E090E00E94D50260E08DE00E9437
:1010D000100264EF71E080E090E00E94D5028FEF93
:1010E000C81AD80AE5CF0E94100268EE73E080E0CB
:1010F00090E00E94D502F12CE12CEC16FD06C4F420
:1011000061E08DE00E94100264E670E080E090E013
:101110000E94D50260E08DE00E94100264E670E05B
:1011200080E090E00E94D502AFEFEA1AFA0AE5CF1C
:10113000809162028630E1F4CAE0D0E0CE010E94E4
:1011400087006FE070E080E090E00E94D502219679
:10115000C238D10599F7CE010E9487006FE070E098
:1011600080E090E00E94D5022197CA30D10599F71E
:101170000115110509F461CF0E946D01882309F45E
:101180005CCF0E94000059CF052E97FB1EF40094FF
:101190000E94DB0857FD07D00E94F60807FC03D029
:1011A0004EF40C94DB0850954095309521953F4FB7
:1011B0004F4F5F4F089590958095709561957F4F43
:1011C0008F4F9F4F08950E941809A59F900DB49FBF
:1011D000900DA49F800D911D11240895B7FF0C94CC
:1011E000E3080E94E308821B930B0895A1E21A2EE4
:1011F000AA1BBB1BFD010DC0AA1FBB1FEE1FFF1FBB
:10120000A217B307E407F50720F0A21BB30BE40B0A
:10121000F50B661F771F881F991F1A9469F7609551
:101220007095809590959B01AC01BD01CF0108950B
:10123000A29FB001B39FC001A39F700D811D112417
:10124000911DB29F700D811D1124911D0895991B50
:1012500079E004C0991F961708F0961B881F7A95AD
:10126000C9F780950895EE0FFF1F0590F491E02DCA
:061270000994F894FFCF81
:1012760000000000A30103013001F00161013F01FC
:08128600530120000D0A0000D5
:107800000C94343C0C94513C0C94513C0C94513CE1
:107810000C94513C0C94513C0C94513C0C94513CB4
:107820000C94513C0C94513C0C94513C0C94513CA4
:107830000C94513C0C94513C0C94513C0C94513C94
:107840000C94513C0C94513C0C94513C0C94513C84
:107850000C94513C0C94513C0C94513C0C94513C74
:107860000C94513C0C94513C11241FBECFEFD8E036
:10787000DEBFCDBF11E0A0E0B1E0ECE9FFE702C060
:1078800005900D92A230B107D9F712E0A2E0B1E065
:1078900001C01D92AD30B107E1F70E942D3D0C945F
:1078A000CC3F0C94003C982F959595959595959582
:1078B000905D8F708A307CF0282F295A8091C0000B
:1078C00085FFFCCF9093C6008091C00085FFFCCF60
:1078D0002093C6000895282F205DF0CF982F809127
:1078E000C00085FFFCCF9093C6000895EF92FF92F1
:1078F0000F931F93EE24FF2487018091C00087FD22
:1079000017C00894E11CF11C011D111D81E4E8164B
:1079100082E4F8068FE0080780E0180770F3E09132
:107920000401F091050109958091C00087FFE9CF1E
:107930008091C6001F910F91FF90EF9008950E94D3
:10794000763C982F8091C00085FFFCCF9093C600B5
:1079500091362CF490330CF09053892F089597555D
:10796000892F08951F930E949F3C182F0E949F3CCF
:107970001295107F810F1F9108951F93182F882350
:1079800021F00E94763C1150E1F71F9108951F935A
:10799000182F0E94763C803249F0809103018F5F5E
:1079A000809303018530C1F01F9108958091C0003C
:1079B00085FFFCCF84E18093C6008091C00085FFE5
:1079C000FCCF1093C6008091C00085FFFCCF80E102
:1079D0008093C6001F910895E0910401F091050184
:1079E00009951F9108950E94763C803241F0809164
:1079F00003018F5F80930301853081F008958091AA
:107A0000C00085FFFCCF84E18093C6008091C00058
:107A100085FFFCCF80E18093C6000895E0910401CA
:107A2000F09105010995089540E951E08823A1F0FE
:107A30002D9A28EE33E0FA013197F1F721503040CA
:107A4000D1F72D9828EE33E0FA013197F1F7215064
:107A50003040D1F7815061F708953F924F925F9285
:107A60006F927F928F929F92AF92BF92CF92DF924E
:107A7000EF92FF920F931F93CF93DF93000080E16B
:107A80008093C4001092C50088E18093C10086E015
:107A90008093C2005098589A259A81E00E94143D24
:107AA00024E1F22E9EE1E92E85E9D82E0FE0C02ECA
:107AB00010E1B12EAA24A394B1E49B2EA6E58A2E50
:107AC000F2E57F2EE0E26E2E79E4572E63E5462E36
:107AD00050E5352E0E94763C8033B1F18133B9F107
:107AE000803409F46FC0813409F476C0823409F41B
:107AF00085C0853409F488C0803531F1823521F1A3
:107B0000813511F1853509F485C0863509F48DC0BC
:107B1000843609F496C0843709F403C1853709F423
:107B200072C1863709F466C0809103018F5F80932C
:107B30000301853079F6E0910401F0910501099582
:107B40000E94763C803351F60E94F33CC3CF0E94E2
:107B5000763C803249F78091C00085FFFCCFF092DF
:107B6000C6008091C00085FFFCCF9092C600809136
:107B7000C00085FFFCCF8092C6008091C00085FFC9
:107B8000FCCF7092C6008091C00085FFFCCF609250
:107B9000C6008091C00085FFFCCF5092C600809146
:107BA000C00085FFFCCF4092C6008091C00085FFD9
:107BB000FCCF3092C6008091C00085FFFCCFB09210
:107BC000C60088CF0E94763C863808F4BDCF0E945C
:107BD000763C0E94F33C7ECF0E94763C803809F4CC
:107BE0009CC0813809F40BC1823809F43CC1883942
:107BF00009F48FC080E00E94C73C6CCF84E10E94F2
:107C0000BD3C0E94F33C66CF85E00E94BD3C0E94D3
:107C1000F33C60CF0E94763C809306010E94763C44
:107C2000809307010E94F33C55CF0E94763C80333D
:107C300009F41DC183E00E94BD3C80E00E94C73C66
:107C400049CF0E94763C809309020E94763C809343
:107C5000080280910C028E7F80930C020E94763C79
:107C6000853409F415C18091080290910902892B8D
:107C700089F000E010E00E94763CF801E85FFE4FDA
:107C800080830F5F1F4F80910802909109020817AF
:107C9000190788F30E94763C803209F045CF809125
:107CA0000C0280FF01C16091060170910701660F0F
:107CB000771F7093070160930601A0910802B091AD
:107CC00009021097C9F0E8E0F1E09B01AD014E0F09
:107CD0005F1FF999FECF32BD21BD819180BDFA9A17
:107CE000F99A2F5F3F4FE417F50799F76A0F7B1F4B
:107CF00070930701609306018091C00085FFFCCF5F
:107D0000F092C6008091C00085FFFCCFB092C60003
:107D1000E1CE83E00E94C73CDDCE82E00E94C73CFA
:107D2000D9CE0E94763C809309020E94763C8093D3
:107D300008028091060190910701880F991F909386
:107D40000701809306010E94763C853409F4A6C0A1
:107D500080910C028E7F80930C020E94763C8032D0
:107D600009F0B8CE8091C00085FFFCCFF092C6002C
:107D7000609108027091090261157105B9F140E046
:107D800050E080910C02A82FA170B82FB27011C0E2
:107D9000BB2309F45CC0E0910601F0910701319624
:107DA000F0930701E09306014F5F5F4F46175707B7
:107DB000E8F4AA2369F3F999FECF209106013091E6
:107DC000070132BD21BDF89A90B58091C00085FFB2
:107DD000FCCF9093C6002F5F3F4F30930701209355
:107DE00006014F5F5F4F4617570718F38091C00099
:107DF00085FDE5CE8091C00085FFF8CFE0CE81E023
:107E00000E94C73C67CE0E94763C803209F08CCE3F
:107E10008091C00085FFFCCFF092C6008091C00029
:107E200085FFFCCFE092C6008091C00085FFFCCFAB
:107E3000D092C6008091C00085FFFCCFC092C600E2
:107E40008091C00085FFFCCFB092C60043CEE09188
:107E50000601F091070194918091C00085FFFCCF4D
:107E60009093C6009CCF80E10E94C73C33CE0E9415
:107E7000763C0E94763C182F0E94763C112309F430
:107E800083C0113009F484C08FE00E94C73C22CE29
:107E900080910C02816080930C02E5CE80910C02EF
:107EA000816080930C0259CF809107018823880F4D
:107EB000880B8A2180930B02809106019091070123
:107EC000880F991F90930701809306018091080203
:107ED00080FF09C080910802909109020196909359
:107EE000090280930802F894F999FECF1127E091D6
:107EF0000601F0910701C8E0D1E08091080290915D
:107F00000902103091F40091570001700130D9F34B
:107F100003E000935700E89500915700017001308D
:107F2000D9F301E100935700E89509901990009169
:107F3000570001700130D9F301E000935700E89534
:107F40001395103498F011270091570001700130FB
:107F5000D9F305E000935700E895009157000170B0
:107F60000130D9F301E100935700E895329602976A
:107F700009F0C7CF103011F00296E5CF112480919F
:107F8000C00085FFB9CEBCCE8EE10E94C73CA2CD19
:0C7F900085E90E94C73C9ECDF894FFCF0D
:027F9C00800063
:040000030000780081
:00000001FF