:100000000C9463000C948B000C948B000C948B006C
:100010000C948B000C948B000C948B000C948B0034
:100020000C948B000C948B000C948B000C940406A5
:100030000C948B000C948B000C948B000C948B0014
:100040000C949F040C948B000C946D040C94470446
:100050000C948B000C948B000C948B000C948B00F4
:100060000C94E9040C948B0000000000240027008D
:100070002A0000000000250028002B0004040404CE
:100080000404040402020202020203030303030342
:10009000010204081020408001020408102001021F
:1000A00004081020000000080002010000030407FB
:1000B00000000000000000001F1C1F1E1F1E1F1F4D
:1000C0001E1F1E00C00611241FBECFEFD8E0DEBFEA
:1000D000CDBF11E0A0E0B1E0E8E9F4E102C0059095
:1000E0000D92A831B107D9F722E0A8E1B1E001C033
:1000F0001D92A736B207E1F710E0C3E6D0E004C0D6
:100100002197FE010E941F09C236D107C9F70E943C
:100110002D070C944A0A0C940000CF92DF92EF92C4
:10012000FF92DC01A03282E0B807D4F5A53BB1050F
:1001300014F0A4EBB0E04091610228E830E0241B09
:10014000310947FD3395220F331F220F331F6901F9
:10015000330FEE08FF084091620228E532E0241BCD
:10016000310947FD3395220F331F220F331F032E12
:10017000000C440B550B2C193D094E095F09B7FFC4
:1001800002C0B0E0A0E00E94C60824EB30E040E0EE
:1001900050E00E949C08C20ED31EE41EF51ED6013C
:1001A000E0916002EC3080F52091610288E890E0F7
:1001B000821B910927FD9395880F991F880F991F1E
:1001C000A817B90784F02091620288E592E0821BAB
:1001D000910927FD9395880F991F880F991FA817DC
:1001E000B9070CF4CD010297880F991F4FB7F89407
:1001F0002E2F30E0F901EE0FFF1FE20FF31FE05D3D
:10020000FD4F928381834FBFFF90EF90DF90CF909F
:100210000895AF92BF92CF92DF92EF92FF920F9329
:100220001F93CF93DF936C017B018B01040F151F8C
:10023000EB015E01AE18BF08C017D10759F06991F4
:10024000D601ED91FC910190F081E02DC601099558
:10025000892B79F7C501DF91CF911F910F91FF9005
:10026000EF90DF90CF90BF90AF900895FC01538D39
:10027000448D252F30E0842F90E0821B930B541780
:1002800010F0CF96089501970895FC01918D828D0D
:10029000981761F0A28DAE0FBF2FB11D5D968C91A6
:1002A000928D9F5F9F73928F90E008958FEF9FEFE5
:1002B0000895FC01918D828D981731F0828DE80FA1
:1002C000F11D858D90E008958FEF9FEF0895FC015B
:1002D000918D228D892F90E0805C9F4F821B910928
:1002E0008F739927089583E991E00E94670121E0C7
:1002F000892B09F420E0822F089580E090E0892B7B
:1003000029F00E94730181110C9400000895FC01F2
:10031000A48DA80FB92FB11DA35ABF4F2C91848D66
:1003200090E001968F739927848FA689B7892C93C3
:10033000A089B1898C91837080648C93938D848D16
:10034000981306C00288F389E02D80818F7D808319
:100350000895EF92FF920F931F93CF93DF93EC01D9
:1003600081E0888F9B8D8C8D98131AC0E889F9895C
:10037000808185FF15C09FB7F894EE89FF8960835F
:10038000E889F98980818370806480839FBF81E0E0
:1003900090E0DF91CF911F910F91FF90EF90089522
:1003A000F62E0B8D10E00F5F1F4F0F731127E02EFD
:1003B0008C8D8E110CC00FB607FCFACFE889F98935
:1003C000808185FFF5CFCE010E948701F1CFEB8DB3
:1003D000EC0FFD2FF11DE35AFF4FF0829FB7F89409
:1003E0000B8FEA89FB8980818062CFCFCF93DF9327
:1003F000EC01888D8823B9F0AA89BB89E889F9893D
:100400008C9185FD03C0808186FD0DC00FB607FC71
:10041000F7CF8C9185FFF2CF808185FFEDCFCE01A4
:100420000E948701E9CFDF91CF91089590E0FC0110
:10043000EC55FF4F2491FC01E057FF4F3491FC0134
:10044000E458FF4FE491EE23C9F0222339F0233022
:1004500001F1A8F4213019F1223029F1F0E0EE0F7A
:10046000FF1FEE58FF4FA591B4918FB7F894EC9110
:10047000611126C030953E233C938FBF08952730ED
:10048000A9F02830C9F0243049F7809180008F7D91
:1004900003C0809180008F7780938000DFCF84B588
:1004A0008F7784BDDBCF84B58F7DFBCF8091B0008B
:1004B0008F778093B000D2CF8091B0008F7DF9CF3D
:1004C0003E2BDACFCF93DF9390E0FC01E057FF4F54
:1004D000249184589F4FFC0184918823D1F090E0AF
:1004E000880F991FFC01E859FF4FA591B491FC01B9
:1004F000EE58FF4FC591D49161110EC09FB7F8948B
:100500008C91E22FE0958E238C932881E223E8835F
:100510009FBFDF91CF9108958FB7F894EC91E22BB4
:10052000EC938FBFF6CF3FB7F89480918F019091F5
:100530009001A0919101B091920126B5A89B05C0B0
:100540002F3F19F00196A11DB11D3FBFBA2FA92F52
:10055000982F8827BC01CD01620F711D811D911D4F
:1005600042E0660F771F881F991F4A95D1F70895BB
:100570008F929F92AF92BF92CF92DF92EF92FF92B3
:100580000E9493024B015C018FE0C82ED12CE12C1C
:10059000F12C0E949302681979098A099B09683E27
:1005A000734081059105A8F321E0C21AD108E10842
:1005B000F10888EE880E83E0981EA11CB11CC114BE
:1005C000D104E104F10429F7FF90EF90DF90CF9080
:1005D000BF90AF909F908F90089520914001260F7B
:1005E0003327331F21323105ECF420916401FC01E3
:1005F00090E080E0243069F082E00895A09140010D
:100600002191AC01405E5E4FA40FB52FB11D2C931C
:100610000196861798F380914001680F609340011E
:1006200080E0089581E0089508958FEF9FEF089589
:100630008FEF9FEF08958091190190E0919581953A
:1006400091090895CF93DF93CB01EA01642F0E94B3
:10065000ED02CE01DF91CF910895CF93DF931F92EA
:10066000CDB7DEB7698361E0CE0101960E94ED024D
:1006700081E090E00F90DF91CF91089590E080E0CD
:100680000895FC0161819081492F50E08281282FDB
:1006900030E0E8EBF0E081E0861730F47491270F4A
:1006A000311D8F5F3196F8CF633020F0937011F4D5
:1006B0002F5F3F4F6DE671E0469FC001479F900D51
:1006C000569F900D112405964D5F5F4F56954795A7
:1006D00056954795840F951F820F931F67E070E032
:1006E0000E940B0908950F931F93CF93DF93D0E0DF
:1006F000C0E0082F10E0B8010C2E02C07595679578
:100700000A94E2F76170809156020E94160261E03D
:10071000809155020E94160260E0809155020E946D
:1007200016022196C830D10531F7DF91CF911F9184
:100730000F910895FF920F931F93CF93DF93F82E9D
:10074000C5E5D2E060E08A810E94160261E08A81FC
:100750000E94620260E088810E94160261E0888146
:100760000E94620261E089810E94620261E08A81E6
:100770000E9416020BE010E0C8010197F1F78F2DDF
:100780000E94730380E00E94730360E08A810E94EC
:100790001602C8010197F1F7DF91CF911F910F91D8
:1007A000FF9008951F93CF93DF9385ED8093BC0056
:1007B00080911C0190911D01A0911E01B0911F011B
:1007C0000796A11DB11D23E0B695A795979587952E
:1007D0002A95D1F72091BC0024FD03C0109264013A
:1007E00052C040911C0150911D0160911E017091F9
:1007F0001F01452B462B472B69F30097A105B10537
:1008000041F025E32A95F1F700000197A109B1090C
:10081000E1CF80911B01C1E0C0931A01882399F1B7
:10082000D091B8001091BA008091BC008A7B80936F
:10083000BC0060E082E10E94160260E083E10E9459
:10084000160210926401C09366011092650161E086
:1008500082E10E94160261E083E10E94160280910B
:10086000B9008E7F8093B9008091B9008D7F80930D
:10087000B90088E48093B80085E48093BC001093AD
:10088000BA00D093B800DF91CF911F9108951F92C5
:100890000F920FB60F9211242F933F934F935F93B4
:1008A0006F937F938F939F93AF93BF93EF93FF9338
:1008B00083E991E00E948701FF91EF91BF91AF9191
:1008C0009F918F917F916F915F914F913F912F9168
:1008D0000F900FBE0F901F9018951F920F920FB69A
:1008E0000F9211242F938F939F93EF93FF93E09197
:1008F000A301F091A4018081E091A901F091AA01E6
:1009000082FD1BC090818091AC018F5F8F7320911D
:10091000AD01821741F0E091AC01F0E0ED56FE4FE1
:10092000958F8093AC01FF91EF919F918F912F91C3
:100930000F900FBE0F901F9018958081F4CF1F92DB
:100940000F920FB60F9211242F933F938F939F9383
:10095000AF93BF9380918B0190918C01A0918D01F9
:10096000B0918E0130918A0123E0230F2D3758F585
:100970000196A11DB11D20938A0180938B01909354
:100980008C01A0938D01B0938E0180918F01909185
:100990009001A0919101B09192010196A11DB11D0C
:1009A00080938F0190939001A0939101B093920155
:1009B000BF91AF919F918F913F912F910F900FBE5B
:1009C0000F901F90189526E8230F0296A11DB11DC8
:1009D000D2CF1F920F920FB60F9211242F933F93F5
:1009E0004F935F936F937F938F939F93AF93BF9337
:1009F000EF93FF938091B900887F803609F44AC055
:100A0000F0F5883209F4A5C018F5803109F499C0D1
:100A1000B8F4882309F4F5C0883009F492C0FF9136
:100A2000EF91BF91AF919F918F917F916F915F9166
:100A30004F913F912F910F900FBE0F901F901895DF
:100A4000883109F486C0803251F78093630114C065
:100A5000803409F49BC040F48033B9F38833F9F64D
:100A60008093630185ECAEC0803509F483C088357E
:100A700009F494C0883499F60E94D203D0CF883903
:100A800009F48AC038F5883729F050F4883611F017
:100A9000803729F683E0809364011092620155C08B
:100AA000883809F479C0803919F0803809F0B7CF57
:100AB00080916201803208F06FC0E091620181E0B4
:100AC0008E0F809362018091BB00F0E0EE5BFE4FE1
:100AD00080833BC0803B39F0D0F4803A09F477C082
:100AE000883A09F09CCF84E0809364011092410120
:100AF00010924001F0E0E0E0099580914001811101
:100B00000FC081E0809340011092200109C0803C19
:100B100009F4A8CF883C09F4A5CF883B09F07FCF22
:100B2000E091410181E08E0F80934101F0E0E05EB1
:100B3000FE4F80818093BB009091410180914001E4
:100B400029C0809189018093BB0085EC8093BC0013
:100B500066CF9091880180918701981758F5E091B0
:100B6000880181E08E0F80938801F0E0E959FE4F03
:100B70008081E9CFE091880181E08E0F8093880128
:100B80008091BB00F0E0E959FE4F8083909188018D
:100B9000809187019817C8F285E8D8CFE091880145
:100BA00081E08E0F809388018091BB00F0E0E959CD
:100BB000FE4F80838091660181115ECF81E080933A
:100BC000650184EA8093BC001092640128CF85EC13
:100BD0008093BC001092640180916201803230F4F5
:100BE000E0916201F0E0EE5BFE4F108260916201E5
:100BF00070E082E491E0F0E0E0E00995109262019B
:100C00000ECF1092630138CF1F920F920FB60F9242
:100C100011242F933F934F935F936F937F938F9301
:100C20009F93AF93BF93CF93DF93EF93FF93809105
:100C30001801C0915402D0E087FF24C010928500B3
:100C400010928400809118018F5F80931801809129
:100C50001801082E000C990B8C179D0724F4809125
:100C600018018C30C4F18091840090918500049625
:100C700080349C4908F47AC080918400909185006A
:100C8000049676C080911801082E000C990B8C17E1
:100C90009D07C4F6E09118018E2FEE0F990BFC0111
:100CA000EE0FFF1FE80FF91FE05DFD4F808186FF0B
:100CB000C9CFE09118018E2FEE0F990BFC01EE0FBA
:100CC000FF1FE80FF91FE05DFD4F808160E08F732B
:100CD0000E941602B7CF2091840030918500E091E8
:100CE00018018E2FEE0F990BFC01EE0FFF1FE80F7E
:100CF000F91FE05DFD4F81819281820F931F9093D8
:100D0000890080938800E09118018E2FEE0F990BD7
:100D1000FC01EE0FFF1FE80FF91FE05DFD4F808122
:100D200086FF11C0E09118018E2FEE0F990BFC0188
:100D3000EE0FFF1FE80FF91FE05DFD4F808161E0BE
:100D40008F730E941602FF91EF91DF91CF91BF91B7
:100D5000AF919F918F917F916F915F914F913F9153
:100D60002F910F900FBE0F901F90189580E49CE973
:100D700090938900809388008FEF80931801E3CFD0
:100D8000109296011092950188EE93E0A0E0B0E0F9
:100D90008093970190939801A0939901B0939A0141
:100DA0008AE091E0909394018093930185EC90E028
:100DB0009093A00180939F0184EC90E09093A20116
:100DC0008093A10180EC90E09093A4018093A30113
:100DD00081EC90E09093A6018093A50182EC90E0D5
:100DE0009093A8018093A70186EC90E09093AA01CC
:100DF0008093A9011092AC011092AD011092AE0146
:100E00001092AF01809154028C3018F591E0980F48
:100E1000909354028093600290E0FC01EE0FFF1F5C
:100E2000E80FF91FE05DFD4F88EB9BE09283818323
:100E300087E08093550288E08093560289E0809392
:100E400057028EE890E00E949A0380E990E00C94AB
:100E50009A038FEF80936002EBCFCF93DF9300D0A4
:100E600000D000D0CDB7DEB7789484B5826084BD61
:100E700084B5816084BD85B5826085BD85B581609E
:100E800085BD80916E00816080936E00109281001C
:100E900080918100826080938100809181008160D7
:100EA0008093810080918000816080938000809198
:100EB000B10084608093B1008091B0008160809324
:100EC000B00080917A00846080937A0080917A00EB
:100ED000826080937A0080917A00816080937A00AA
:100EE00080917A00806880937A001092C10080918E
:100EF00060028C3008F051C061E086E00E9462021E
:100F000080916002282F30E0F901EE0FFF1FE20F01
:100F1000F31FE05DFD4F9081907C9660908310926E
:100F20006102109262022CE0622F0E94FF08829FF1
:100F3000B001112430E020E0AB01420F531FFA0151
:100F4000EE0FFF1FE40FF51FE05DFD4F908196FD52
:100F500016C02F5F3F4F2C30310571F781110FC044
:100F60001092800082E080938100109285001092A0
:100F70008400B19A80916F00826080936F00E0914D
:100F800060028E2F90E0FC01EE0FFF1FE80FF91FAB
:100F9000E05DFD4F80818064808390E080E00E946E
:100FA0008D008CE3C82ED12CE12CF12C90E8492E39
:100FB00091E5592E66246394712C23E9222E2EEF9D
:100FC000322E86E090E00E942509FC012091580213
:100FD0003091590240915A0250915C0260915D0239
:100FE00080915E0290915F02803D77E0970710F05C
:100FF000805D97408083618352834383348325835C
:101000004F01FF0FAA08BB0880E8881A83E4980AFA
:101010008DE6A80A88E3B80AC501B401A7019601C4
:101020000E94CE086E83CA01B901A70196010E94F1
:10103000CE086D83C501B40120E13EE040E050E000
:101040000E94CE08CA01B90128E130E040E050E03A
:101050000E94CE086C83C501B401A30192010E94D5
:10106000CE0880E0982F937041E050E011F050E0FE
:1010700040E0E1E0E80FBA0163597E4F26173707D9
:1010800038F0C101841B950B280F391F8E2FEACF32
:101090008983E8EBF0E081E08C3069F044919111B4
:1010A00003C0823009F44F5F50E061E0680F319671
:1010B00024173507E8F58A832F5F2B83CE0101962D
:1010C0000E944103682F83E991E00E94A901CE01AB
:1010D00001960E944103811104C0CE0101960E9435
:1010E000410380915A028630B1F40AE010E0C80151
:1010F0000E948D000E94B8020F5F1F4F0E3611052F
:10110000B1F7C8010E948D000E94B8020150110978
:101110000A301105B1F780E090E0892B09F451CF36
:101120000E947301882309F44CCF0E94000049CF2C
:10113000241B350B862FB0CF052E97FB1EF4009491
:101140000E94B30857FD07D00E94CE0807FC03D0C9
:101150004EF40C94B30850954095309521953F4F2F
:101160004F4F5F4F089590958095709561957F4F93
:101170008F4F9F4F08950E94F008A59F900DB49F38
:10118000900DA49F800D911D11240895B7FF0C941C
:10119000BB080E94BB08821B930B0895A1E21A2E84
:1011A000AA1BBB1BFD010DC0AA1FBB1FEE1FFF1F0B
:1011B000A217B307E407F50720F0A21BB30BE40B5B
:1011C000F50B661F771F881F991F1A9469F76095A2
:1011D0007095809590959B01AC01BD01CF0108955C
:1011E000A29FB001B39FC001A39F700D811D112468
:1011F000911DB29F700D811D1124911D0895991BA1
:1012000079E004C0991F961708F0961B881F7A95FD
:10121000C9F780950895AA1BBB1B51E107C0AA1FFF
:10122000BB1FA617B70710F0A61BB70B881F991F87
:101230005A95A9F780959095BC01CD010895EE0FC0
:10124000FF1F0590F491E02D09940F931F93CF9306
:10125000DF938230910510F482E090E0E091650226
:10126000F091660230E020E0B0E0A0E0309799F421
:101270002115310509F44AC0281B390B24303105EA
:10128000D8F58A819B816115710589F1FB019383F2
:101290008283FE0111C04081518102811381481770
:1012A0005907E0F04817590799F4109761F0129622
:1012B0000C93129713961C933296CF01DF91CF9126
:1012C0001F910F9108950093650210936602F4CF69
:1012D0002115310551F04217530738F0A901DB0100
:1012E0009A01BD01DF01F801C1CFEF01F9CF909361
:1012F000660280936502CDCFFE01E20FF31F81935A
:1013000091932250310939832883D7CF20916302EA
:1013100030916402232B41F42091020130910301AA
:101320003093640220936302209100013091010107
:101330002115310541F42DB73EB74091040150917C
:101340000501241B350BE0916302F0916402E21762
:10135000F307A0F42E1B3F0B2817390778F0AC01D8
:101360004E5F5F4F2417350748F04E0F5F1F5093B5
:10137000640240936302819391939FCFF0E0E0E099
:101380009CCFCF93DF930097E9F0FC013297138253
:101390001282A0916502B0916602ED0130E020E07A
:1013A0001097A1F420813181820F931F2091630255
:1013B000309164022817390709F061C0F093640284
:1013C000E0936302DF91CF910895EA01CE17DF0722
:1013D000E8F54A815B819E0141155105B1F7E901AC
:1013E000FB83EA8349915991C40FD51FEC17FD0780
:1013F00061F4808191810296840F951FE9019983A0
:101400008883828193819B838A83F0E0E0E0129657
:101410008D919C9113970097B9F52D913C9111975F
:10142000CD010296820F931F2091630230916402D6
:101430002817390739F6309751F510926602109245
:101440006502B0936402A0936302BCCFD383C283CE
:1014500040815181840F951FC817D90761F44E5FF1
:101460005F4F88819981480F591F518340838A813A
:101470009B81938382832115310509F0B0CFF093CE
:101480006602E09365029ECFFD01DC01C0CF1382AE
:081490001282D7CFF894FFCFC0
:1014980000006702800000000000A9010901360170
:0814A800F6016701450159013D
:00000001FF
